:1000000006C1000023C1000021C100001FC1000083
:100010001DC100001BC1000019C1000017C1000074
:1000200015C1000013C1000011C100000FC1000084
:100030000DC100000BC1000009C1000007C1000094
:1000400005C1000003C1000001C10000FFC00000A5
:10005000FDC00000FBC00000F9C00000CDC10000E1
:10006000F5C00000F3C00000F1C00000EFC00000C8
:10007000EDC00000EBC00000E9C00000E7C00000D8
:10008000E5C00000E3C00000E1C00000DFC00000E8
:10009000DDC00000DBC00000D9C00000D7C00000F8
:1000A000D5C00000D3C00000D1C00000CFC0000008
:1000B000CDC00000CBC00000C9C00000C7C0000018
:1000C000C5C00000C3C00000C1C00000BFC0000028
:1000D000BDC00000BBC00000B9C00000B7C0000038
:1000E000B5C0000052015501440148014C018C018A
:1000F00059015D01630167016B01710175017901AE
:100100008C017F018301870100002100240027006A
:100110002A002D0030003300010100000401070116
:100120000A0100002200250028002B002E003100CB
:10013000340002010000050108010B010505050559
:10014000070508080808020202020A0A080804044F
:10015000040401010101010101010303030303037D
:100160000303040707070C0C0C0C0C0C0C0C02020C
:10017000020206060606060606060B0B0B0B0B0B09
:100180000B0B010210202008081020401020408096
:10019000020102010804020101020408102040804B
:1001A00080402010080402018004020180402010D9
:1001B0000804020108040201010204081020408022
:1001C000010204081020408000000A0B02090C0DF7
:1001D0000E080703040100000000000000000000FA
:1001E000000000000000000000000000000000000F
:1001F00000000000121110000000000000000000CC
:1002000000000000000000000000000000001124B9
:100210001FBECFEFD1E2DEBFCDBF00E00CBF12E0CA
:10022000A0E0B2E0E0E4FBE000E00BBF02C007901A
:100230000D92A230B107D9F722E0A2E0B2E001C0EE
:100240001D92A131B207E1F721D178C4D9CECF9365
:10025000C82FE5EDF1E04491EFE8F1E02491E9E405
:10026000F1E09491992309F46AC0442309F454C03D
:1002700050E0FA013197E231F10508F04DC08827CE
:10028000EE58FF4F8F4FA5C1809180008F7707C038
:10029000809180008F7D03C080918000877F809354
:1002A00080003AC084B58F7702C084B58F7D84BD4D
:1002B00033C08091B0008F7703C08091B0008F7DF4
:1002C0008093B00029C0809190008F7707C0809103
:1002D00090008F7D03C080919000877F8093900075
:1002E0001BC08091A0008F7707C08091A0008F7DF8
:1002F00003C08091A000877F8093A0000DC0309143
:1003000020013F7707C0309120013F7D03C030912D
:100310002001377F30932001E92FF0E0EE0FFF1F1F
:10032000EE5DFE4FA591B4918FB7F894EC91C11199
:1003300003C020952E2301C02E2B2C938FBFCF916D
:1003400008953FB7F8948091070290910802A09118
:100350000902B0910A0226B5A89B05C02F3F19F0EB
:100360000196A11DB11D3FBFBA2FA92F982F882735
:10037000820F911DA11DB11DBC01CD0142E0660F90
:10038000771F881F991F4A95D1F708958F929F92E2
:10039000AF92BF92CF92DF92EF92FF92D2DF4B01EA
:1003A0005C0188EEC82E83E0D82EE12CF12CC9DF49
:1003B000DC01CB0188199909AA09BB09883E934041
:1003C000A105B10558F021E0C21AD108E108F108F1
:1003D00088EE880E83E0981EA11CB11CC114D104C4
:1003E000E104F10421F7FF90EF90DF90CF90BF90F0
:1003F000AF909F908F9008951F920F920FB60F921B
:1004000011242F933F938F939F93AF93BF9380912A
:10041000030290910402A0910502B091060230916E
:10042000020223E0230F2D3720F40196A11DB11DF8
:1004300005C026E8230F0296A11DB11D20930202DC
:100440008093030290930402A0930502B0930602E6
:100450008091070290910802A0910902B0910A02CE
:100460000196A11DB11D8093070290930802A093ED
:100470000902B0930A02BF91AF919F918F913F9172
:100480002F910F900FBE0F901F901895789484B500
:10049000826084BD84B5816084BD85B5826085BD80
:1004A00085B5816085BD80916E00816080936E000E
:1004B0001092810080918100826080938100809100
:1004C00081008160809381008091800081608093B1
:1004D00080008091B10084608093B1008091B00071
:1004E00081608093B0008091910082608093910040
:1004F0008091910081608093910080919000816053
:10050000809390008091A10082608093A1008091EF
:10051000A10081608093A1008091A0008160809300
:10052000A0008091210182608093210180912101AE
:10053000816080932101809120018160809320015E
:1005400080917A00846080937A0080917A00826042
:1005500080937A0080917A00816080937A00809104
:100560007A00806880937A001092C100EFE8F1E091
:100570002491E9E4F1E08491882399F090E0880FD8
:10058000991FFC01E85FFE4FA591B491FC01EE5D5F
:10059000FE4F859194918FB7F894EC91E22BEC93F8
:1005A0008FBFC0E0D2E00C2E000CDD0B00E010E0AD
:1005B00081E04DDEDF93CF9314D0E8DE80E047DEAC
:1005C000E5DE0F900F900115110591F30E940000D8
:1005D000EFCFEE0FFF1F881F8BBF0790F691E02D26
:1005E0001994CF93DF93CDB7DEB7AE014A5F5F4F6B
:1005F000FA0161917191AF0180910D0290910E020B
:1006000003D0DF91CF9108952F923F924F925F9246
:100610006F927F928F929F92AF92BF92CF92DF9212
:10062000EF92FF920F931F93CF93DF93CDB7DEB777
:100630002C970FB6F894DEBF0FBECDBF7C016B01C7
:100640008A01FC0117821682838181FFB0C1CE012D
:1006500001964C01F7019381F60193FD859193FF7B
:1006600081916F01882309F49EC1853239F493FD8D
:10067000859193FF81916F01853221F4B70190E05C
:10068000C7D1E8CF512C312C20E02032A0F48B329E
:1006900069F030F4803259F0833269F420612CC063
:1006A0008D3239F0803339F4216026C02260246015
:1006B00023C0286021C027FD27C030ED380F3A3015
:1006C00078F426FF06C0FAE05F9E300D1124532E09
:1006D00013C08AE0389E300D1124332E20620CC0E6
:1006E0008E3221F426FD5FC1206406C08C3611F4E1
:1006F000206802C0883641F4F60193FD859193FF8E
:1007000081916F018111C1CF982F9F7D95549330B6
:1007100028F40C5F1F4FFFE3F9830DC0833631F0DF
:10072000833771F0833509F057C021C0F80180810B
:1007300089830E5F1F4F44244394512C540114C0ED
:100740003801F2E06F0E711CF801A080B18026FF25
:1007500003C0652D70E002C06FEF7FEFC5012C87ED
:100760004CD12C0183012C852F77222E16C0380105
:10077000F2E06F0E711CF801A080B18026FF03C06B
:10078000652D70E002C06FEF7FEFC5012C872AD185
:100790002C012C852068222E830123FC19C0832D77
:1007A00090E048165906A0F4B70180E290E030D1FD
:1007B0003A94F5CFF50127FC859127FE81915F01E1
:1007C000B70190E025D131103A94F1E04F1A510869
:1007D0004114510479F7DEC0843611F0893631F5C1
:1007E000F80127FF07C060817181828193810C5FCE
:1007F0001F4F08C060817181072E000C880B990B78
:100800000E5F1F4F2F76722E97FF09C0909580952F
:10081000709561957F4F8F4F9F4F2068722E2AE011
:1008200030E0A4012DD1A82EA81843C0853729F4A3
:100830002F7EB22E2AE030E025C0F22FF97FBF2EA6
:100840008F36C1F018F4883579F0ADC0803719F0D3
:10085000883721F0A8C02F2F2061B22EB4FE0DC022
:100860008B2D8460B82E09C024FF0AC09F2F96608C
:10087000B92E06C028E030E005C020E130E002C01B
:1008800020E132E0F801B7FE07C06081718182810A
:1008900093810C5F1F4F06C06081718180E090E002
:1008A0000E5F1F4FA401ECD0A82EA818FB2DFF77D8
:1008B0007F2E76FE0BC0372D3E7FA51450F474FEBC
:1008C0000AC072FC08C0372D3E7E05C0BA2C372DF9
:1008D00003C0BA2C01C0B52C34FF0DC0FE01EA0DD7
:1008E000F11D8081803311F4397E09C032FF06C0CA
:1008F000B394B39404C0832F867809F0B39433FD86
:1009000012C030FF06C05A2CB31418F4530C5B18F5
:10091000B32CB31460F4B70180E290E03C8778D048
:10092000B3943C85F6CFB31410F43B1801C0312CBE
:1009300034FF11C0B70180E390E03C8769D03C856B
:1009400032FF16C031FD03C088E790E002C088E5A1
:1009500090E0B7010CC0832F867851F031FF02C0C0
:100960008BE201C080E237FD8DE2B70190E050D00C
:10097000A51430F4B70180E390E04AD05A94F8CF40
:10098000AA94F401EA0DF11D8081B70190E040D0F6
:10099000A110F6CF332009F45DCEB70180E290E0DC
:1009A00037D03A94F7CFF7018681978102C08FEF55
:1009B0009FEF2C960FB6F894DEBF0FBECDBFDF9130
:1009C000CF911F910F91FF90EF90DF90CF90BF904C
:1009D000AF909F908F907F906F905F904F903F90DF
:1009E0002F900895FC010590615070400110D8F7D8
:1009F000809590958E0F9F1F0895FC016150704067
:100A000001900110D8F7809590958E0F9F1F089543
:100A10000F931F93CF93DF93FB01238121FD03C02D
:100A20008FEF9FEF28C022FF16C046815781248197
:100A300035814217530744F4A081B1819D012F5F96
:100A40003F4F318320838C93268137812F5F3F4F27
:100A50003783268310C0EB01092F182F0084F185FE
:100A6000E02D1995892BE1F68E819F8101969F8358
:100A70008E83812F902FDF91CF911F910F91089539
:100A8000FA01AA27283051F1203181F1E8946F93BF
:100A90006E7F6E5F7F4F8F4F9F4FAF4FB1E03ED065
:100AA000B4E03CD0670F781F891F9A1FA11D680F03
:100AB000791F8A1F911DA11D6A0F711D811D911D36
:100AC000A11D20D009F468943F912AE0269F1124AB
:100AD0003019305D3193DEF6CF010895462F47700F
:100AE000405D4193B3E00FD0C9F7F6CF462F4F706A
:100AF000405D4A3318F0495D31FD4052419302D0C8
:100B0000A9F7EACFB4E0A69597958795779567956D
:100B1000BA95C9F700976105710508959B01AC016D
:100B20000A2E06945795479537952795BA95C9F794
:100B3000620F731F841F951FA01D0895F894FFCFA7
:020B400048006B
:00000001FF
